{
  "contractName": "CarbonFootprint",
  "abi": [
    {
      "anonymous": false,
      "inputs": [
        {
          "indexed": true,
          "internalType": "address",
          "name": "company",
          "type": "address"
        },
        {
          "indexed": false,
          "internalType": "uint256",
          "name": "consumption",
          "type": "uint256"
        },
        {
          "indexed": false,
          "internalType": "string",
          "name": "billHash",
          "type": "string"
        },
        {
          "indexed": false,
          "internalType": "uint256",
          "name": "timestamp",
          "type": "uint256"
        }
      ],
      "name": "ElectricityDataAdded",
      "type": "event"
    },
    {
      "inputs": [
        {
          "internalType": "address",
          "name": "",
          "type": "address"
        },
        {
          "internalType": "uint256",
          "name": "",
          "type": "uint256"
        }
      ],
      "name": "electricityData",
      "outputs": [
        {
          "internalType": "uint256",
          "name": "consumption",
          "type": "uint256"
        },
        {
          "internalType": "string",
          "name": "billHash",
          "type": "string"
        },
        {
          "internalType": "uint256",
          "name": "timestamp",
          "type": "uint256"
        }
      ],
      "stateMutability": "view",
      "type": "function",
      "constant": true
    },
    {
      "inputs": [
        {
          "internalType": "uint256",
          "name": "_consumption",
          "type": "uint256"
        },
        {
          "internalType": "string",
          "name": "_billHash",
          "type": "string"
        }
      ],
      "name": "addElectricityData",
      "outputs": [],
      "stateMutability": "nonpayable",
      "type": "function"
    },
    {
      "inputs": [],
      "name": "getElectricityData",
      "outputs": [
        {
          "components": [
            {
              "internalType": "uint256",
              "name": "consumption",
              "type": "uint256"
            },
            {
              "internalType": "string",
              "name": "billHash",
              "type": "string"
            },
            {
              "internalType": "uint256",
              "name": "timestamp",
              "type": "uint256"
            }
          ],
          "internalType": "struct CarbonFootprint.ElectricityData[]",
          "name": "",
          "type": "tuple[]"
        }
      ],
      "stateMutability": "view",
      "type": "function",
      "constant": true
    },
    {
      "inputs": [
        {
          "internalType": "address",
          "name": "_company",
          "type": "address"
        }
      ],
      "name": "getElectricityDataByAddress",
      "outputs": [
        {
          "components": [
            {
              "internalType": "uint256",
              "name": "consumption",
              "type": "uint256"
            },
            {
              "internalType": "string",
              "name": "billHash",
              "type": "string"
            },
            {
              "internalType": "uint256",
              "name": "timestamp",
              "type": "uint256"
            }
          ],
          "internalType": "struct CarbonFootprint.ElectricityData[]",
          "name": "",
          "type": "tuple[]"
        }
      ],
      "stateMutability": "view",
      "type": "function",
      "constant": true
    }
  ],
  "bytecode": "0x608060405234801561001057600080fd5b50610b4c806100206000396000f3fe608060405234801561001057600080fd5b506004361061004c5760003560e01c80632c8a752614610051578063bd02064a1461006f578063c9706cb2146100a1578063f1067f52146100d1575b600080fd5b6100596100ed565b60405161006691906108a2565b60405180910390f35b610089600480360381019061008491906106a9565b61022e565b604051610098939291906108c4565b60405180910390f35b6100bb60048036038101906100b69190610680565b6102fd565b6040516100c891906108a2565b60405180910390f35b6100eb60048036038101906100e691906106e5565b610440565b005b60606000803373ffffffffffffffffffffffffffffffffffffffff1673ffffffffffffffffffffffffffffffffffffffff168152602001908152602001600020805480602002602001604051908101604052809291908181526020016000905b8282101561022557838290600052602060002090600302016040518060600160405290816000820154815260200160018201805461018a90610a47565b80601f01602080910402602001604051908101604052809291908181526020018280546101b690610a47565b80156102035780601f106101d857610100808354040283529160200191610203565b820191906000526020600020905b8154815290600101906020018083116101e657829003601f168201915b505050505081526020016002820154815250508152602001906001019061014d565b50505050905090565b6000602052816000526040600020818154811061024a57600080fd5b90600052602060002090600302016000915091505080600001549080600101805461027490610a47565b80601f01602080910402602001604051908101604052809291908181526020018280546102a090610a47565b80156102ed5780601f106102c2576101008083540402835291602001916102ed565b820191906000526020600020905b8154815290600101906020018083116102d057829003601f168201915b5050505050908060020154905083565b60606000808373ffffffffffffffffffffffffffffffffffffffff1673ffffffffffffffffffffffffffffffffffffffff168152602001908152602001600020805480602002602001604051908101604052809291908181526020016000905b8282101561043557838290600052602060002090600302016040518060600160405290816000820154815260200160018201805461039a90610a47565b80601f01602080910402602001604051908101604052809291908181526020018280546103c690610a47565b80156104135780601f106103e857610100808354040283529160200191610413565b820191906000526020600020905b8154815290600101906020018083116103f657829003601f168201915b505050505081526020016002820154815250508152602001906001019061035d565b505050509050919050565b6000803373ffffffffffffffffffffffffffffffffffffffff1673ffffffffffffffffffffffffffffffffffffffff16815260200190815260200160002060405180606001604052808481526020018381526020014281525090806001815401808255809150506001900390600052602060002090600302016000909190919091506000820151816000015560208201518160010190805190602001906104e892919061054b565b506040820151816002015550503373ffffffffffffffffffffffffffffffffffffffff167f5d25f62817a7e71d5c3f7fc543d7a440a14ee02cc897eed0554252887033fa2483834260405161053f939291906108c4565b60405180910390a25050565b82805461055790610a47565b90600052602060002090601f01602090048101928261057957600085556105c0565b82601f1061059257805160ff19168380011785556105c0565b828001600101855582156105c0579182015b828111156105bf5782518255916020019190600101906105a4565b5b5090506105cd91906105d1565b5090565b5b808211156105ea5760008160009055506001016105d2565b5090565b60006106016105fc84610933565b610902565b90508281526020810184848401111561061957600080fd5b610624848285610a05565b509392505050565b60008135905061063b81610ae8565b92915050565b600082601f83011261065257600080fd5b81356106628482602086016105ee565b91505092915050565b60008135905061067a81610aff565b92915050565b60006020828403121561069257600080fd5b60006106a08482850161062c565b91505092915050565b600080604083850312156106bc57600080fd5b60006106ca8582860161062c565b92505060206106db8582860161066b565b9150509250929050565b600080604083850312156106f857600080fd5b60006107068582860161066b565b925050602083013567ffffffffffffffff81111561072357600080fd5b61072f85828601610641565b9150509250929050565b60006107458383610834565b905092915050565b600061075882610973565b6107628185610996565b93508360208202850161077485610963565b8060005b858110156107b057848403895281516107918582610739565b945061079c83610989565b925060208a01995050600181019050610778565b50829750879550505050505092915050565b60006107cd8261097e565b6107d781856109a7565b93506107e7818560208601610a14565b6107f081610ad7565b840191505092915050565b60006108068261097e565b61081081856109b8565b9350610820818560208601610a14565b61082981610ad7565b840191505092915050565b600060608301600083015161084c6000860182610884565b506020830151848203602086015261086482826107c2565b91505060408301516108796040860182610884565b508091505092915050565b61088d816109fb565b82525050565b61089c816109fb565b82525050565b600060208201905081810360008301526108bc818461074d565b905092915050565b60006060820190506108d96000830186610893565b81810360208301526108eb81856107fb565b90506108fa6040830184610893565b949350505050565b6000604051905081810181811067ffffffffffffffff8211171561092957610928610aa8565b5b8060405250919050565b600067ffffffffffffffff82111561094e5761094d610aa8565b5b601f19601f8301169050602081019050919050565b6000819050602082019050919050565b600081519050919050565b600081519050919050565b6000602082019050919050565b600082825260208201905092915050565b600082825260208201905092915050565b600082825260208201905092915050565b60006109d4826109db565b9050919050565b600073ffffffffffffffffffffffffffffffffffffffff82169050919050565b6000819050919050565b82818337600083830152505050565b60005b83811015610a32578082015181840152602081019050610a17565b83811115610a41576000848401525b50505050565b60006002820490506001821680610a5f57607f821691505b60208210811415610a7357610a72610a79565b5b50919050565b7f4e487b7100000000000000000000000000000000000000000000000000000000600052602260045260246000fd5b7f4e487b7100000000000000000000000000000000000000000000000000000000600052604160045260246000fd5b6000601f19601f8301169050919050565b610af1816109c9565b8114610afc57600080fd5b50565b610b08816109fb565b8114610b1357600080fd5b5056fea26469706673582212205ba3a48afa6a26ebdf34dcd466164f3e7ec6c096cb50afa4f1419d9a07fb06d364736f6c63430008000033",
  "immutableReferences": {},
  "source": "// SPDX-License-Identifier: MIT\r\npragma solidity ^0.8.0;\r\nimport \"./UserRoleManagement.sol\";\r\n\r\ncontract CarbonFootprint {\r\n    struct ElectricityData {\r\n        uint256 consumption; // in MWH\r\n        string billHash;     // IPFS hash of the bill\r\n        uint256 timestamp;   // Timestamp of the data addition\r\n    }\r\n\r\n    // Mapping to store electricity data for each company (by their wallet address)\r\n    mapping(address => ElectricityData[]) public electricityData;\r\n\r\n    // Event to notify when electricity data is added\r\n    event ElectricityDataAdded(address indexed company, uint256 consumption, string billHash, uint256 timestamp);\r\n\r\n    function addElectricityData(uint256 _consumption, string memory _billHash) public {\r\n        electricityData[msg.sender].push(\r\n            ElectricityData(_consumption, _billHash, block.timestamp)\r\n        );\r\n        emit ElectricityDataAdded(msg.sender, _consumption, _billHash, block.timestamp);\r\n    }\r\n\r\n     // Function to get electricity data for the caller\r\n    function getElectricityData() public view returns (ElectricityData[] memory) {\r\n        return electricityData[msg.sender];\r\n    }\r\n\r\n    // Function to get electricity data for a specific address\r\n    function getElectricityDataByAddress(address _company) public view returns (ElectricityData[] memory) {\r\n        return electricityData[_company];\r\n    }\r\n}\r\n",
  "sourcePath": "C:\\Users\\Shreya\\Desktop\\secure_carbon\\truffle\\contracts\\CarbonFootprint.sol",
  "compiler": {
    "name": "solc",
    "version": "0.8.0+commit.c7dfd78e.Emscripten.clang"
  },
  "schemaVersion": "3.4.16",
  "updatedAt": "2024-12-10T06:15:08.816Z",
  "networkType": "ethereum",
  "devdoc": {
    "kind": "dev",
    "methods": {},
    "version": 1
  },
  "userdoc": {
    "kind": "user",
    "methods": {},
    "version": 1
  }
}