{
  "contractName": "CarbonFootprint",
  "abi": [
    {
      "anonymous": false,
      "inputs": [
        {
          "indexed": true,
          "internalType": "address",
          "name": "company",
          "type": "address"
        },
        {
          "indexed": false,
          "internalType": "uint256",
          "name": "consumption",
          "type": "uint256"
        },
        {
          "indexed": false,
          "internalType": "string",
          "name": "billHash",
          "type": "string"
        },
        {
          "indexed": false,
          "internalType": "uint256",
          "name": "timestamp",
          "type": "uint256"
        }
      ],
      "name": "ElectricityDataAdded",
      "type": "event"
    },
    {
      "inputs": [
        {
          "internalType": "address",
          "name": "",
          "type": "address"
        },
        {
          "internalType": "uint256",
          "name": "",
          "type": "uint256"
        }
      ],
      "name": "electricityData",
      "outputs": [
        {
          "internalType": "string",
          "name": "companyName",
          "type": "string"
        },
        {
          "internalType": "uint256",
          "name": "consumption",
          "type": "uint256"
        },
        {
          "internalType": "string",
          "name": "billHash",
          "type": "string"
        },
        {
          "internalType": "uint256",
          "name": "timestamp",
          "type": "uint256"
        }
      ],
      "stateMutability": "view",
      "type": "function",
      "constant": true
    },
    {
      "inputs": [
        {
          "internalType": "string",
          "name": "_companyName",
          "type": "string"
        },
        {
          "internalType": "uint256",
          "name": "_consumption",
          "type": "uint256"
        },
        {
          "internalType": "string",
          "name": "_billHash",
          "type": "string"
        }
      ],
      "name": "addElectricityData",
      "outputs": [],
      "stateMutability": "nonpayable",
      "type": "function"
    }
  ],
  "bytecode": "0x608060405234801561001057600080fd5b506107df806100206000396000f3fe608060405234801561001057600080fd5b50600436106100365760003560e01c80634c6885481461003b578063bd02064a14610057575b600080fd5b61005560048036038101906100509190610487565b61008a565b005b610071600480360381019061006c919061044b565b6101b9565b604051610081949392919061054e565b60405180910390f35b6000803373ffffffffffffffffffffffffffffffffffffffff1673ffffffffffffffffffffffffffffffffffffffff1681526020019081526020016000206040518060800160405280858152602001848152602001838152602001428152509080600181540180825580915050600190039060005260206000209060040201600090919091909150600082015181600001908051906020019061012e929190610316565b50602082015181600101556040820151816002019080519060200190610155929190610316565b506060820151816003015550503373ffffffffffffffffffffffffffffffffffffffff167f5d25f62817a7e71d5c3f7fc543d7a440a14ee02cc897eed0554252887033fa248383426040516101ac939291906105a1565b60405180910390a2505050565b600060205281600052604060002081815481106101d557600080fd5b9060005260206000209060040201600091509150508060000180546101f9906106da565b80601f0160208091040260200160405190810160405280929190818152602001828054610225906106da565b80156102725780601f1061024757610100808354040283529160200191610272565b820191906000526020600020905b81548152906001019060200180831161025557829003601f168201915b50505050509080600101549080600201805461028d906106da565b80601f01602080910402602001604051908101604052809291908181526020018280546102b9906106da565b80156103065780601f106102db57610100808354040283529160200191610306565b820191906000526020600020905b8154815290600101906020018083116102e957829003601f168201915b5050505050908060030154905084565b828054610322906106da565b90600052602060002090601f016020900481019282610344576000855561038b565b82601f1061035d57805160ff191683800117855561038b565b8280016001018555821561038b579182015b8281111561038a57825182559160200191906001019061036f565b5b509050610398919061039c565b5090565b5b808211156103b557600081600090555060010161039d565b5090565b60006103cc6103c784610610565b6105df565b9050828152602081018484840111156103e457600080fd5b6103ef848285610698565b509392505050565b6000813590506104068161077b565b92915050565b600082601f83011261041d57600080fd5b813561042d8482602086016103b9565b91505092915050565b60008135905061044581610792565b92915050565b6000806040838503121561045e57600080fd5b600061046c858286016103f7565b925050602061047d85828601610436565b9150509250929050565b60008060006060848603121561049c57600080fd5b600084013567ffffffffffffffff8111156104b657600080fd5b6104c28682870161040c565b93505060206104d386828701610436565b925050604084013567ffffffffffffffff8111156104f057600080fd5b6104fc8682870161040c565b9150509250925092565b600061051182610640565b61051b818561064b565b935061052b8185602086016106a7565b6105348161076a565b840191505092915050565b6105488161068e565b82525050565b600060808201905081810360008301526105688187610506565b9050610577602083018661053f565b81810360408301526105898185610506565b9050610598606083018461053f565b95945050505050565b60006060820190506105b6600083018661053f565b81810360208301526105c88185610506565b90506105d7604083018461053f565b949350505050565b6000604051905081810181811067ffffffffffffffff821117156106065761060561073b565b5b8060405250919050565b600067ffffffffffffffff82111561062b5761062a61073b565b5b601f19601f8301169050602081019050919050565b600081519050919050565b600082825260208201905092915050565b60006106678261066e565b9050919050565b600073ffffffffffffffffffffffffffffffffffffffff82169050919050565b6000819050919050565b82818337600083830152505050565b60005b838110156106c55780820151818401526020810190506106aa565b838111156106d4576000848401525b50505050565b600060028204905060018216806106f257607f821691505b602082108114156107065761070561070c565b5b50919050565b7f4e487b7100000000000000000000000000000000000000000000000000000000600052602260045260246000fd5b7f4e487b7100000000000000000000000000000000000000000000000000000000600052604160045260246000fd5b6000601f19601f8301169050919050565b6107848161065c565b811461078f57600080fd5b50565b61079b8161068e565b81146107a657600080fd5b5056fea26469706673582212209906362968ed4a725e1a61ef680743d78fc2893d014a2f01ce99f4b3e3bdbcea64736f6c63430008000033",
  "immutableReferences": {},
  "source": "// SPDX-License-Identifier: MIT\r\npragma solidity ^0.8.0;\r\n\r\ncontract CarbonFootprint {\r\n    struct ElectricityData {\r\n        string companyName;\r\n        uint256 consumption; // in MWH\r\n        string billHash;     // IPFS hash of the bill\r\n        uint256 timestamp;\r\n    }\r\n\r\n    mapping(address => ElectricityData[]) public electricityData;\r\n\r\n    event ElectricityDataAdded(address indexed company, uint256 consumption, string billHash, uint256 timestamp);\r\n\r\n    function addElectricityData(string memory _companyName, uint256 _consumption, string memory _billHash) public {\r\n        electricityData[msg.sender].push(ElectricityData(_companyName, _consumption, _billHash, block.timestamp));\r\n        emit ElectricityDataAdded(msg.sender, _consumption, _billHash, block.timestamp);\r\n    }\r\n}\r\n",
  "sourcePath": "C:\\Users\\Shreya\\Desktop\\secure_carbon\\truffle\\contracts\\CarbonFootprint.sol",
  "compiler": {
    "name": "solc",
    "version": "0.8.0+commit.c7dfd78e.Emscripten.clang"
  },
  "schemaVersion": "3.4.16",
  "updatedAt": "2024-11-13T16:56:07.897Z",
  "networkType": "ethereum",
  "devdoc": {
    "kind": "dev",
    "methods": {},
    "version": 1
  },
  "userdoc": {
    "kind": "user",
    "methods": {},
    "version": 1
  }
}