{
  "contractName": "UserRoleManagement",
  "abi": [
    {
      "inputs": [],
      "stateMutability": "nonpayable",
      "type": "constructor"
    },
    {
      "anonymous": false,
      "inputs": [
        {
          "indexed": true,
          "internalType": "address",
          "name": "admin",
          "type": "address"
        }
      ],
      "name": "AdminAdded",
      "type": "event"
    },
    {
      "anonymous": false,
      "inputs": [
        {
          "indexed": true,
          "internalType": "address",
          "name": "user",
          "type": "address"
        },
        {
          "indexed": false,
          "internalType": "enum UserRoleManagement.Role",
          "name": "role",
          "type": "uint8"
        }
      ],
      "name": "RoleAssigned",
      "type": "event"
    },
    {
      "inputs": [
        {
          "internalType": "address",
          "name": "",
          "type": "address"
        }
      ],
      "name": "roles",
      "outputs": [
        {
          "internalType": "enum UserRoleManagement.Role",
          "name": "",
          "type": "uint8"
        }
      ],
      "stateMutability": "view",
      "type": "function"
    },
    {
      "inputs": [],
      "name": "superAdmin",
      "outputs": [
        {
          "internalType": "address",
          "name": "",
          "type": "address"
        }
      ],
      "stateMutability": "view",
      "type": "function"
    },
    {
      "inputs": [
        {
          "internalType": "address",
          "name": "user",
          "type": "address"
        },
        {
          "internalType": "enum UserRoleManagement.Role",
          "name": "role",
          "type": "uint8"
        }
      ],
      "name": "assignRole",
      "outputs": [],
      "stateMutability": "nonpayable",
      "type": "function"
    },
    {
      "inputs": [
        {
          "internalType": "address",
          "name": "newAdmin",
          "type": "address"
        }
      ],
      "name": "addAdmin",
      "outputs": [],
      "stateMutability": "nonpayable",
      "type": "function"
    },
    {
      "inputs": [
        {
          "internalType": "address",
          "name": "admin",
          "type": "address"
        }
      ],
      "name": "removeAdmin",
      "outputs": [],
      "stateMutability": "nonpayable",
      "type": "function"
    },
    {
      "inputs": [
        {
          "internalType": "address",
          "name": "user",
          "type": "address"
        }
      ],
      "name": "getRole",
      "outputs": [
        {
          "internalType": "enum UserRoleManagement.Role",
          "name": "",
          "type": "uint8"
        }
      ],
      "stateMutability": "view",
      "type": "function"
    },
    {
      "inputs": [
        {
          "internalType": "address",
          "name": "user",
          "type": "address"
        }
      ],
      "name": "isVerifier",
      "outputs": [
        {
          "internalType": "bool",
          "name": "",
          "type": "bool"
        }
      ],
      "stateMutability": "view",
      "type": "function"
    },
    {
      "inputs": [
        {
          "internalType": "address",
          "name": "verifier",
          "type": "address"
        }
      ],
      "name": "removeVerifier",
      "outputs": [],
      "stateMutability": "nonpayable",
      "type": "function"
    }
  ],
  "bytecode": "0x608060405234801561001057600080fd5b5033600160006101000a81548173ffffffffffffffffffffffffffffffffffffffff021916908373ffffffffffffffffffffffffffffffffffffffff1602179055506003600080600160009054906101000a900473ffffffffffffffffffffffffffffffffffffffff1673ffffffffffffffffffffffffffffffffffffffff1673ffffffffffffffffffffffffffffffffffffffff16815260200190815260200160002060006101000a81548160ff021916908360058111156100fc577f4e487b7100000000000000000000000000000000000000000000000000000000600052602160045260246000fd5b0217905550600160009054906101000a900473ffffffffffffffffffffffffffffffffffffffff1673ffffffffffffffffffffffffffffffffffffffff167f4ac36fa53f167ceb85964be512e01de2a3b8bdb9862f917da079deeeff689b38600360405161016a9190610186565b60405180910390a2610209565b610180816101b4565b82525050565b600060208201905061019b6000830184610177565b92915050565b60008190506101af826101f5565b919050565b60006101bf826101a1565b9050919050565b7f4e487b7100000000000000000000000000000000000000000000000000000000600052602160045260246000fd5b60068110610206576102056101c6565b5b50565b610eac80620002196000396000f3fe608060405234801561001057600080fd5b50600436106100885760003560e01c8063630a195b1161005b578063630a195b146101275780637048027514610143578063993746421461015f578063ca2dfd0a1461018f57610088565b80631785f53c1461008d57806329575f6a146100a957806333105218146100c757806344276733146100f7575b600080fd5b6100a760048036038101906100a29190610c55565b6101ab565b005b6100b16103e4565b6040516100be9190610d27565b60405180910390f35b6100e160048036038101906100dc9190610c55565b61040a565b6040516100ee9190610d42565b60405180910390f35b610111600480360381019061010c9190610c55565b6104d1565b60405161011e9190610d5d565b60405180910390f35b610141600480360381019061013c9190610c7e565b610526565b005b61015d60048036038101906101589190610c55565b61075a565b005b61017960048036038101906101749190610c55565b6109d2565b6040516101869190610d5d565b60405180910390f35b6101a960048036038101906101a49190610c55565b6109f2565b005b600360058111156101e5577f4e487b7100000000000000000000000000000000000000000000000000000000600052602160045260246000fd5b6000803373ffffffffffffffffffffffffffffffffffffffff1673ffffffffffffffffffffffffffffffffffffffff16815260200190815260200160002060009054906101000a900460ff166005811115610269577f4e487b7100000000000000000000000000000000000000000000000000000000600052602160045260246000fd5b14806102c25750600160009054906101000a900473ffffffffffffffffffffffffffffffffffffffff1673ffffffffffffffffffffffffffffffffffffffff163373ffffffffffffffffffffffffffffffffffffffff16145b610301576040517f08c379a00000000000000000000000000000000000000000000000000000000081526004016102f890610d78565b60405180910390fd5b6000808273ffffffffffffffffffffffffffffffffffffffff1673ffffffffffffffffffffffffffffffffffffffff16815260200190815260200160002060006101000a81549060ff02191690558073ffffffffffffffffffffffffffffffffffffffff167f44d6d25963f097ad14f29f06854a01f575648a1ef82f30e562ccd3889717e33960405160405180910390a28073ffffffffffffffffffffffffffffffffffffffff167f4ac36fa53f167ceb85964be512e01de2a3b8bdb9862f917da079deeeff689b3860036040516103d99190610d5d565b60405180910390a250565b600160009054906101000a900473ffffffffffffffffffffffffffffffffffffffff1681565b6000600580811115610445577f4e487b7100000000000000000000000000000000000000000000000000000000600052602160045260246000fd5b6000808473ffffffffffffffffffffffffffffffffffffffff1673ffffffffffffffffffffffffffffffffffffffff16815260200190815260200160002060009054906101000a900460ff1660058111156104c9577f4e487b7100000000000000000000000000000000000000000000000000000000600052602160045260246000fd5b149050919050565b60008060008373ffffffffffffffffffffffffffffffffffffffff1673ffffffffffffffffffffffffffffffffffffffff16815260200190815260200160002060009054906101000a900460ff169050919050565b60036005811115610560577f4e487b7100000000000000000000000000000000000000000000000000000000600052602160045260246000fd5b6000803373ffffffffffffffffffffffffffffffffffffffff1673ffffffffffffffffffffffffffffffffffffffff16815260200190815260200160002060009054906101000a900460ff1660058111156105e4577f4e487b7100000000000000000000000000000000000000000000000000000000600052602160045260246000fd5b148061063d5750600160009054906101000a900473ffffffffffffffffffffffffffffffffffffffff1673ffffffffffffffffffffffffffffffffffffffff163373ffffffffffffffffffffffffffffffffffffffff16145b61067c576040517f08c379a000000000000000000000000000000000000000000000000000000000815260040161067390610d78565b60405180910390fd5b806000808473ffffffffffffffffffffffffffffffffffffffff1673ffffffffffffffffffffffffffffffffffffffff16815260200190815260200160002060006101000a81548160ff02191690836005811115610703577f4e487b7100000000000000000000000000000000000000000000000000000000600052602160045260246000fd5b02179055508173ffffffffffffffffffffffffffffffffffffffff167f4ac36fa53f167ceb85964be512e01de2a3b8bdb9862f917da079deeeff689b388260405161074e9190610d5d565b60405180910390a25050565b60036005811115610794577f4e487b7100000000000000000000000000000000000000000000000000000000600052602160045260246000fd5b6000803373ffffffffffffffffffffffffffffffffffffffff1673ffffffffffffffffffffffffffffffffffffffff16815260200190815260200160002060009054906101000a900460ff166005811115610818577f4e487b7100000000000000000000000000000000000000000000000000000000600052602160045260246000fd5b14806108715750600160009054906101000a900473ffffffffffffffffffffffffffffffffffffffff1673ffffffffffffffffffffffffffffffffffffffff163373ffffffffffffffffffffffffffffffffffffffff16145b6108b0576040517f08c379a00000000000000000000000000000000000000000000000000000000081526004016108a790610d78565b60405180910390fd5b60036000808373ffffffffffffffffffffffffffffffffffffffff1673ffffffffffffffffffffffffffffffffffffffff16815260200190815260200160002060006101000a81548160ff02191690836005811115610938577f4e487b7100000000000000000000000000000000000000000000000000000000600052602160045260246000fd5b02179055508073ffffffffffffffffffffffffffffffffffffffff167f44d6d25963f097ad14f29f06854a01f575648a1ef82f30e562ccd3889717e33960405160405180910390a28073ffffffffffffffffffffffffffffffffffffffff167f4ac36fa53f167ceb85964be512e01de2a3b8bdb9862f917da079deeeff689b3860036040516109c79190610d5d565b60405180910390a250565b60006020528060005260406000206000915054906101000a900460ff1681565b60036005811115610a2c577f4e487b7100000000000000000000000000000000000000000000000000000000600052602160045260246000fd5b6000803373ffffffffffffffffffffffffffffffffffffffff1673ffffffffffffffffffffffffffffffffffffffff16815260200190815260200160002060009054906101000a900460ff166005811115610ab0577f4e487b7100000000000000000000000000000000000000000000000000000000600052602160045260246000fd5b1480610b095750600160009054906101000a900473ffffffffffffffffffffffffffffffffffffffff1673ffffffffffffffffffffffffffffffffffffffff163373ffffffffffffffffffffffffffffffffffffffff16145b610b48576040517f08c379a0000000000000000000000000000000000000000000000000000000008152600401610b3f90610d78565b60405180910390fd5b6000808273ffffffffffffffffffffffffffffffffffffffff1673ffffffffffffffffffffffffffffffffffffffff16815260200190815260200160002060006101000a81549060ff02191690558073ffffffffffffffffffffffffffffffffffffffff167f44d6d25963f097ad14f29f06854a01f575648a1ef82f30e562ccd3889717e33960405160405180910390a28073ffffffffffffffffffffffffffffffffffffffff167f4ac36fa53f167ceb85964be512e01de2a3b8bdb9862f917da079deeeff689b386005604051610c209190610d5d565b60405180910390a250565b600081359050610c3a81610e4f565b92915050565b600081359050610c4f81610e66565b92915050565b600060208284031215610c6757600080fd5b6000610c7584828501610c2b565b91505092915050565b60008060408385031215610c9157600080fd5b6000610c9f85828601610c2b565b9250506020610cb085828601610c40565b9150509250929050565b610cc381610da9565b82525050565b610cd281610dbb565b82525050565b610ce181610dfa565b82525050565b6000610cf4600c83610d98565b91507f4e6f7420616e2041646d696e00000000000000000000000000000000000000006000830152602082019050919050565b6000602082019050610d3c6000830184610cba565b92915050565b6000602082019050610d576000830184610cc9565b92915050565b6000602082019050610d726000830184610cd8565b92915050565b60006020820190508181036000830152610d9181610ce7565b9050919050565b600082825260208201905092915050565b6000610db482610dda565b9050919050565b60008115159050919050565b6000819050610dd582610e3b565b919050565b600073ffffffffffffffffffffffffffffffffffffffff82169050919050565b6000610e0582610dc7565b9050919050565b7f4e487b7100000000000000000000000000000000000000000000000000000000600052602160045260246000fd5b60068110610e4c57610e4b610e0c565b5b50565b610e5881610da9565b8114610e6357600080fd5b50565b60068110610e7357600080fd5b5056fea264697066735822122002cce61548d79948d2e747731aa7289f4ecdb454c6cc434cfd810448fce7264e64736f6c63430008000033",
  "immutableReferences": {},
  "source": "// SPDX-License-Identifier: MIT\npragma solidity ^0.8.0;\n\ncontract UserRoleManagement {\n    enum Role {\n        CompanyUser,\n        RawMaterialSupplier,\n        ElectricitySupplier,\n        AdminUser,\n        GoodsAndServicesPartner,\n        Verifier\n    }\n\n    mapping(address => Role) public roles;\n    address public superAdmin;\n\n    event RoleAssigned(address indexed user, Role role);\n    event AdminAdded(address indexed admin);\n\n    modifier onlyAdmin() {\n        require(\n            roles[msg.sender] == Role.AdminUser || msg.sender == superAdmin,\n            \"Not an Admin\"\n        );\n        _;\n    }\n\n    constructor() {\n        superAdmin = msg.sender;\n        roles[superAdmin] = Role.AdminUser;\n        emit RoleAssigned(superAdmin, Role.AdminUser);\n    }\n\n    function assignRole(address user, Role role) public onlyAdmin {\n        roles[user] = role;\n        emit RoleAssigned(user, role);\n    }\n\n    function addAdmin(address newAdmin) public onlyAdmin {\n        roles[newAdmin] = Role.AdminUser;\n        emit AdminAdded(newAdmin);\n        emit RoleAssigned(newAdmin, Role.AdminUser);\n    }\n\n    function removeAdmin(address admin) public onlyAdmin {\n        delete roles[admin];\n        emit AdminAdded(admin);\n        emit RoleAssigned(admin, Role.AdminUser);\n    }\n\n    function getRole(address user) public view returns (Role) {\n        return roles[user];\n    }\n\n    function isVerifier(address user) public view returns (bool) {\n        return roles[user] == Role.Verifier;\n    }\n\n    function removeVerifier(address verifier) external onlyAdmin {\n        delete roles[verifier];\n        emit AdminAdded(verifier);\n        emit RoleAssigned(verifier, Role.Verifier);\n    }\n}\n",
  "sourcePath": "C:\\Users\\Shreya\\Desktop\\secure_carbon\\truffle\\contracts\\UserRoleManagement.sol",
  "compiler": {
    "name": "solc",
    "version": "0.8.0+commit.c7dfd78e.Emscripten.clang"
  },
  "schemaVersion": "3.4.16",
  "updatedAt": "2025-02-28T17:26:31.688Z",
  "devdoc": {
    "kind": "dev",
    "methods": {},
    "version": 1
  },
  "userdoc": {
    "kind": "user",
    "methods": {},
    "version": 1
  }
}