{
  "contractName": "CarbonFootprint",
  "abi": [
    {
      "anonymous": false,
      "inputs": [
        {
          "indexed": true,
          "internalType": "address",
          "name": "company",
          "type": "address"
        },
        {
          "indexed": false,
          "internalType": "uint256",
          "name": "consumption",
          "type": "uint256"
        },
        {
          "indexed": false,
          "internalType": "uint256",
          "name": "equivalentCO2",
          "type": "uint256"
        },
        {
          "indexed": false,
          "internalType": "string",
          "name": "billHash",
          "type": "string"
        },
        {
          "indexed": false,
          "internalType": "uint256",
          "name": "timestamp",
          "type": "uint256"
        }
      ],
      "name": "ElectricityDataAdded",
      "type": "event"
    },
    {
      "anonymous": false,
      "inputs": [
        {
          "indexed": true,
          "internalType": "address",
          "name": "company",
          "type": "address"
        },
        {
          "indexed": false,
          "internalType": "string",
          "name": "fuelBill",
          "type": "string"
        },
        {
          "indexed": false,
          "internalType": "uint256",
          "name": "timestamp",
          "type": "uint256"
        }
      ],
      "name": "FuelDataAdded",
      "type": "event"
    },
    {
      "anonymous": false,
      "inputs": [
        {
          "indexed": true,
          "internalType": "address",
          "name": "company",
          "type": "address"
        },
        {
          "indexed": false,
          "internalType": "string",
          "name": "billHash",
          "type": "string"
        },
        {
          "indexed": false,
          "internalType": "uint256",
          "name": "timestamp",
          "type": "uint256"
        }
      ],
      "name": "RawMaterialDataAdded",
      "type": "event"
    },
    {
      "inputs": [
        {
          "internalType": "address",
          "name": "",
          "type": "address"
        },
        {
          "internalType": "uint256",
          "name": "",
          "type": "uint256"
        }
      ],
      "name": "electricityData",
      "outputs": [
        {
          "internalType": "uint256",
          "name": "consumption",
          "type": "uint256"
        },
        {
          "internalType": "string",
          "name": "billHash",
          "type": "string"
        },
        {
          "internalType": "uint256",
          "name": "timestamp",
          "type": "uint256"
        },
        {
          "internalType": "uint256",
          "name": "equivalentCO2",
          "type": "uint256"
        }
      ],
      "stateMutability": "view",
      "type": "function",
      "constant": true
    },
    {
      "inputs": [
        {
          "internalType": "uint256",
          "name": "_consumption",
          "type": "uint256"
        }
      ],
      "name": "calculateEquivalentCO2",
      "outputs": [
        {
          "internalType": "uint256",
          "name": "",
          "type": "uint256"
        }
      ],
      "stateMutability": "pure",
      "type": "function",
      "constant": true
    },
    {
      "inputs": [
        {
          "internalType": "uint256",
          "name": "_consumption",
          "type": "uint256"
        },
        {
          "internalType": "string",
          "name": "_billHash",
          "type": "string"
        }
      ],
      "name": "addElectricityData",
      "outputs": [],
      "stateMutability": "nonpayable",
      "type": "function"
    },
    {
      "inputs": [],
      "name": "getElectricityData",
      "outputs": [
        {
          "components": [
            {
              "internalType": "uint256",
              "name": "consumption",
              "type": "uint256"
            },
            {
              "internalType": "string",
              "name": "billHash",
              "type": "string"
            },
            {
              "internalType": "uint256",
              "name": "timestamp",
              "type": "uint256"
            },
            {
              "internalType": "uint256",
              "name": "equivalentCO2",
              "type": "uint256"
            }
          ],
          "internalType": "struct CarbonFootprint.ElectricityData[]",
          "name": "",
          "type": "tuple[]"
        }
      ],
      "stateMutability": "view",
      "type": "function",
      "constant": true
    },
    {
      "inputs": [
        {
          "internalType": "address",
          "name": "_company",
          "type": "address"
        }
      ],
      "name": "getElectricityDataByAddress",
      "outputs": [
        {
          "components": [
            {
              "internalType": "uint256",
              "name": "consumption",
              "type": "uint256"
            },
            {
              "internalType": "string",
              "name": "billHash",
              "type": "string"
            },
            {
              "internalType": "uint256",
              "name": "timestamp",
              "type": "uint256"
            },
            {
              "internalType": "uint256",
              "name": "equivalentCO2",
              "type": "uint256"
            }
          ],
          "internalType": "struct CarbonFootprint.ElectricityData[]",
          "name": "",
          "type": "tuple[]"
        }
      ],
      "stateMutability": "view",
      "type": "function",
      "constant": true
    },
    {
      "inputs": [
        {
          "internalType": "string[]",
          "name": "_materialTypes",
          "type": "string[]"
        },
        {
          "internalType": "uint256[]",
          "name": "_quantities",
          "type": "uint256[]"
        },
        {
          "internalType": "string",
          "name": "_billHash",
          "type": "string"
        }
      ],
      "name": "addRawMaterialData",
      "outputs": [],
      "stateMutability": "nonpayable",
      "type": "function"
    },
    {
      "inputs": [],
      "name": "getRawMaterialData",
      "outputs": [
        {
          "components": [
            {
              "internalType": "address",
              "name": "supplier",
              "type": "address"
            },
            {
              "components": [
                {
                  "internalType": "string",
                  "name": "materialType",
                  "type": "string"
                },
                {
                  "internalType": "uint256",
                  "name": "quantitySupplied",
                  "type": "uint256"
                }
              ],
              "internalType": "struct CarbonFootprint.Material[]",
              "name": "materials",
              "type": "tuple[]"
            },
            {
              "internalType": "string",
              "name": "billHash",
              "type": "string"
            },
            {
              "internalType": "uint256",
              "name": "timestamp",
              "type": "uint256"
            }
          ],
          "internalType": "struct CarbonFootprint.RawMaterialData[]",
          "name": "",
          "type": "tuple[]"
        }
      ],
      "stateMutability": "view",
      "type": "function",
      "constant": true
    },
    {
      "inputs": [
        {
          "internalType": "address",
          "name": "_company",
          "type": "address"
        }
      ],
      "name": "getRawMaterialDataByAddress",
      "outputs": [
        {
          "components": [
            {
              "internalType": "address",
              "name": "supplier",
              "type": "address"
            },
            {
              "components": [
                {
                  "internalType": "string",
                  "name": "materialType",
                  "type": "string"
                },
                {
                  "internalType": "uint256",
                  "name": "quantitySupplied",
                  "type": "uint256"
                }
              ],
              "internalType": "struct CarbonFootprint.Material[]",
              "name": "materials",
              "type": "tuple[]"
            },
            {
              "internalType": "string",
              "name": "billHash",
              "type": "string"
            },
            {
              "internalType": "uint256",
              "name": "timestamp",
              "type": "uint256"
            }
          ],
          "internalType": "struct CarbonFootprint.RawMaterialData[]",
          "name": "",
          "type": "tuple[]"
        }
      ],
      "stateMutability": "view",
      "type": "function",
      "constant": true
    },
    {
      "inputs": [
        {
          "internalType": "string[]",
          "name": "_fuelTypes",
          "type": "string[]"
        },
        {
          "internalType": "uint256[]",
          "name": "_quantities",
          "type": "uint256[]"
        },
        {
          "internalType": "uint256[]",
          "name": "_lowerHeatingValues",
          "type": "uint256[]"
        },
        {
          "internalType": "uint256[]",
          "name": "_carbonContents",
          "type": "uint256[]"
        },
        {
          "internalType": "string",
          "name": "_fuelBill",
          "type": "string"
        }
      ],
      "name": "addFuelData",
      "outputs": [],
      "stateMutability": "nonpayable",
      "type": "function"
    },
    {
      "inputs": [],
      "name": "getFuelData",
      "outputs": [
        {
          "components": [
            {
              "internalType": "address",
              "name": "supplier",
              "type": "address"
            },
            {
              "components": [
                {
                  "internalType": "string",
                  "name": "fuelType",
                  "type": "string"
                },
                {
                  "internalType": "uint256",
                  "name": "quantitySupplied",
                  "type": "uint256"
                },
                {
                  "internalType": "uint256",
                  "name": "lowerHeatingValue",
                  "type": "uint256"
                },
                {
                  "internalType": "uint256",
                  "name": "carbonContent",
                  "type": "uint256"
                }
              ],
              "internalType": "struct CarbonFootprint.Fuel[]",
              "name": "fuels",
              "type": "tuple[]"
            },
            {
              "internalType": "string",
              "name": "fuelBill",
              "type": "string"
            },
            {
              "internalType": "uint256",
              "name": "timestamp",
              "type": "uint256"
            }
          ],
          "internalType": "struct CarbonFootprint.FuelData[]",
          "name": "",
          "type": "tuple[]"
        }
      ],
      "stateMutability": "view",
      "type": "function",
      "constant": true
    },
    {
      "inputs": [
        {
          "internalType": "address",
          "name": "_company",
          "type": "address"
        }
      ],
      "name": "getFuelDataByAddress",
      "outputs": [
        {
          "components": [
            {
              "internalType": "address",
              "name": "supplier",
              "type": "address"
            },
            {
              "components": [
                {
                  "internalType": "string",
                  "name": "fuelType",
                  "type": "string"
                },
                {
                  "internalType": "uint256",
                  "name": "quantitySupplied",
                  "type": "uint256"
                },
                {
                  "internalType": "uint256",
                  "name": "lowerHeatingValue",
                  "type": "uint256"
                },
                {
                  "internalType": "uint256",
                  "name": "carbonContent",
                  "type": "uint256"
                }
              ],
              "internalType": "struct CarbonFootprint.Fuel[]",
              "name": "fuels",
              "type": "tuple[]"
            },
            {
              "internalType": "string",
              "name": "fuelBill",
              "type": "string"
            },
            {
              "internalType": "uint256",
              "name": "timestamp",
              "type": "uint256"
            }
          ],
          "internalType": "struct CarbonFootprint.FuelData[]",
          "name": "",
          "type": "tuple[]"
        }
      ],
      "stateMutability": "view",
      "type": "function",
      "constant": true
    }
  ],
  "bytecode": "0x608060405234801561001057600080fd5b50612a1a806100206000396000f3fe608060405234801561001057600080fd5b50600436106100a95760003560e01c806376bf3ed51161007157806376bf3ed514610166578063a11e3a2914610182578063b1d927f1146101b2578063bd02064a146101d0578063c9706cb214610203578063f1067f5214610233576100a9565b8063101c2656146100ae57806318d650ec146100ca5780632c8a7526146100fa57806349afc6c414610118578063723e5c4914610136575b600080fd5b6100c860048036038101906100c39190611aed565b61024f565b005b6100e460048036038101906100df9190611c73565b6105e4565b6040516100f191906124af565b60405180910390f35b610102610618565b60405161010f9190612379565b60405180910390f35b610120610763565b60405161012d919061239b565b60405180910390f35b610150600480360381019061014b9190611a88565b610a00565b60405161015d919061239b565b60405180910390f35b610180600480360381019061017b9190611bdc565b610c9f565b005b61019c60048036038101906101979190611a88565b610f92565b6040516101a991906123bd565b60405180910390f35b6101ba61121d565b6040516101c791906123bd565b60405180910390f35b6101ea60048036038101906101e59190611ab1565b6114a6565b6040516101fa94939291906124ca565b60405180910390f35b61021d60048036038101906102189190611a88565b61157b565b60405161022a9190612379565b60405180910390f35b61024d60048036038101906102489190611c9c565b6116c8565b005b8351855114610293576040517f08c379a000000000000000000000000000000000000000000000000000000000815260040161028a9061248f565b60405180910390fd5b60008551116102d7576040517f08c379a00000000000000000000000000000000000000000000000000000000081526004016102ce9061246f565b60405180910390fd5b600081511161031b576040517f08c379a00000000000000000000000000000000000000000000000000000000081526004016103129061242f565b60405180910390fd5b6000600260003373ffffffffffffffffffffffffffffffffffffffff1673ffffffffffffffffffffffffffffffffffffffff1681526020019081526020016000206001816001815401808255809150500390600052602060002090600402019050338160000160006101000a81548173ffffffffffffffffffffffffffffffffffffffff021916908373ffffffffffffffffffffffffffffffffffffffff160217905550818160020190805190602001906103d7929190611836565b5042816003018190555060005b865181101561058b57816001016040518060800160405280898481518110610435577f4e487b7100000000000000000000000000000000000000000000000000000000600052603260045260246000fd5b6020026020010151815260200188848151811061047b577f4e487b7100000000000000000000000000000000000000000000000000000000600052603260045260246000fd5b602002602001015181526020018784815181106104c1577f4e487b7100000000000000000000000000000000000000000000000000000000600052603260045260246000fd5b60200260200101518152602001868481518110610507577f4e487b7100000000000000000000000000000000000000000000000000000000600052603260045260246000fd5b602002602001015181525090806001815401808255809150506001900390600052602060002090600402016000909190919091506000820151816000019080519060200190610557929190611836565b5060208201518160010155604082015181600201556060820151816003015550508080610583906128a0565b9150506103e4565b503373ffffffffffffffffffffffffffffffffffffffff167ff41fe258b97eb467ada4ab198de189c5fb7fa407c170d86413e3210a031ed87383426040516105d49291906123df565b60405180910390a2505050505050565b6000806103e8836105f59190612796565b905060646052826106069190612796565b6106109190612765565b915050919050565b60606000803373ffffffffffffffffffffffffffffffffffffffff1673ffffffffffffffffffffffffffffffffffffffff168152602001908152602001600020805480602002602001604051908101604052809291908181526020016000905b8282101561075a5783829060005260206000209060040201604051806080016040529081600082015481526020016001820180546106b59061286e565b80601f01602080910402602001604051908101604052809291908181526020018280546106e19061286e565b801561072e5780601f106107035761010080835404028352916020019161072e565b820191906000526020600020905b81548152906001019060200180831161071157829003601f168201915b505050505081526020016002820154815260200160038201548152505081526020019060010190610678565b50505050905090565b6060600260003373ffffffffffffffffffffffffffffffffffffffff1673ffffffffffffffffffffffffffffffffffffffff168152602001908152602001600020805480602002602001604051908101604052809291908181526020016000905b828210156109f757838290600052602060002090600402016040518060800160405290816000820160009054906101000a900473ffffffffffffffffffffffffffffffffffffffff1673ffffffffffffffffffffffffffffffffffffffff1673ffffffffffffffffffffffffffffffffffffffff16815260200160018201805480602002602001604051908101604052809291908181526020016000905b8282101561094457838290600052602060002090600402016040518060800160405290816000820180546108959061286e565b80601f01602080910402602001604051908101604052809291908181526020018280546108c19061286e565b801561090e5780601f106108e35761010080835404028352916020019161090e565b820191906000526020600020905b8154815290600101906020018083116108f157829003601f168201915b50505050508152602001600182015481526020016002820154815260200160038201548152505081526020019060010190610862565b50505050815260200160028201805461095c9061286e565b80601f01602080910402602001604051908101604052809291908181526020018280546109889061286e565b80156109d55780601f106109aa576101008083540402835291602001916109d5565b820191906000526020600020905b8154815290600101906020018083116109b857829003601f168201915b50505050508152602001600382015481525050815260200190600101906107c4565b50505050905090565b6060600260008373ffffffffffffffffffffffffffffffffffffffff1673ffffffffffffffffffffffffffffffffffffffff168152602001908152602001600020805480602002602001604051908101604052809291908181526020016000905b82821015610c9457838290600052602060002090600402016040518060800160405290816000820160009054906101000a900473ffffffffffffffffffffffffffffffffffffffff1673ffffffffffffffffffffffffffffffffffffffff1673ffffffffffffffffffffffffffffffffffffffff16815260200160018201805480602002602001604051908101604052809291908181526020016000905b82821015610be15783829060005260206000209060040201604051806080016040529081600082018054610b329061286e565b80601f0160208091040260200160405190810160405280929190818152602001828054610b5e9061286e565b8015610bab5780601f10610b8057610100808354040283529160200191610bab565b820191906000526020600020905b815481529060010190602001808311610b8e57829003601f168201915b50505050508152602001600182015481526020016002820154815260200160038201548152505081526020019060010190610aff565b505050508152602001600282018054610bf99061286e565b80601f0160208091040260200160405190810160405280929190818152602001828054610c259061286e565b8015610c725780601f10610c4757610100808354040283529160200191610c72565b820191906000526020600020905b815481529060010190602001808311610c5557829003601f168201915b5050505050815260200160038201548152505081526020019060010190610a61565b505050509050919050565b8151835114610ce3576040517f08c379a0000000000000000000000000000000000000000000000000000000008152600401610cda9061248f565b60405180910390fd5b6000835111610d27576040517f08c379a0000000000000000000000000000000000000000000000000000000008152600401610d1e9061240f565b60405180910390fd5b6000815111610d6b576040517f08c379a0000000000000000000000000000000000000000000000000000000008152600401610d629061242f565b60405180910390fd5b6000600160003373ffffffffffffffffffffffffffffffffffffffff1673ffffffffffffffffffffffffffffffffffffffff1681526020019081526020016000206001816001815401808255809150500390600052602060002090600402019050338160000160006101000a81548173ffffffffffffffffffffffffffffffffffffffff021916908373ffffffffffffffffffffffffffffffffffffffff16021790555081816002019080519060200190610e27929190611836565b5042816003018190555060005b8451811015610f3b57816001016040518060400160405280878481518110610e85577f4e487b7100000000000000000000000000000000000000000000000000000000600052603260045260246000fd5b60200260200101518152602001868481518110610ecb577f4e487b7100000000000000000000000000000000000000000000000000000000600052603260045260246000fd5b602002602001015181525090806001815401808255809150506001900390600052602060002090600202016000909190919091506000820151816000019080519060200190610f1b929190611836565b506020820151816001015550508080610f33906128a0565b915050610e34565b503373ffffffffffffffffffffffffffffffffffffffff167f06ab4ab75c1a8f25cafa7bb591e1bd647bf6746bf1d4021b0aa8bacce433ce1c8342604051610f849291906123df565b60405180910390a250505050565b6060600160008373ffffffffffffffffffffffffffffffffffffffff1673ffffffffffffffffffffffffffffffffffffffff168152602001908152602001600020805480602002602001604051908101604052809291908181526020016000905b8282101561121257838290600052602060002090600402016040518060800160405290816000820160009054906101000a900473ffffffffffffffffffffffffffffffffffffffff1673ffffffffffffffffffffffffffffffffffffffff1673ffffffffffffffffffffffffffffffffffffffff16815260200160018201805480602002602001604051908101604052809291908181526020016000905b8282101561115f57838290600052602060002090600202016040518060400160405290816000820180546110c49061286e565b80601f01602080910402602001604051908101604052809291908181526020018280546110f09061286e565b801561113d5780601f106111125761010080835404028352916020019161113d565b820191906000526020600020905b81548152906001019060200180831161112057829003601f168201915b5050505050815260200160018201548152505081526020019060010190611091565b5050505081526020016002820180546111779061286e565b80601f01602080910402602001604051908101604052809291908181526020018280546111a39061286e565b80156111f05780601f106111c5576101008083540402835291602001916111f0565b820191906000526020600020905b8154815290600101906020018083116111d357829003601f168201915b5050505050815260200160038201548152505081526020019060010190610ff3565b505050509050919050565b6060600160003373ffffffffffffffffffffffffffffffffffffffff1673ffffffffffffffffffffffffffffffffffffffff168152602001908152602001600020805480602002602001604051908101604052809291908181526020016000905b8282101561149d57838290600052602060002090600402016040518060800160405290816000820160009054906101000a900473ffffffffffffffffffffffffffffffffffffffff1673ffffffffffffffffffffffffffffffffffffffff1673ffffffffffffffffffffffffffffffffffffffff16815260200160018201805480602002602001604051908101604052809291908181526020016000905b828210156113ea578382906000526020600020906002020160405180604001604052908160008201805461134f9061286e565b80601f016020809104026020016040519081016040528092919081815260200182805461137b9061286e565b80156113c85780601f1061139d576101008083540402835291602001916113c8565b820191906000526020600020905b8154815290600101906020018083116113ab57829003601f168201915b505050505081526020016001820154815250508152602001906001019061131c565b5050505081526020016002820180546114029061286e565b80601f016020809104026020016040519081016040528092919081815260200182805461142e9061286e565b801561147b5780601f106114505761010080835404028352916020019161147b565b820191906000526020600020905b81548152906001019060200180831161145e57829003601f168201915b505050505081526020016003820154815250508152602001906001019061127e565b50505050905090565b600060205281600052604060002081815481106114c257600080fd5b9060005260206000209060040201600091509150508060000154908060010180546114ec9061286e565b80601f01602080910402602001604051908101604052809291908181526020018280546115189061286e565b80156115655780601f1061153a57610100808354040283529160200191611565565b820191906000526020600020905b81548152906001019060200180831161154857829003601f168201915b5050505050908060020154908060030154905084565b60606000808373ffffffffffffffffffffffffffffffffffffffff1673ffffffffffffffffffffffffffffffffffffffff168152602001908152602001600020805480602002602001604051908101604052809291908181526020016000905b828210156116bd5783829060005260206000209060040201604051806080016040529081600082015481526020016001820180546116189061286e565b80601f01602080910402602001604051908101604052809291908181526020018280546116449061286e565b80156116915780601f1061166657610100808354040283529160200191611691565b820191906000526020600020905b81548152906001019060200180831161167457829003601f168201915b5050505050815260200160028201548152602001600382015481525050815260200190600101906115db565b505050509050919050565b6000821161170b576040517f08c379a00000000000000000000000000000000000000000000000000000000081526004016117029061244f565b60405180910390fd5b6000611716836105e4565b90506000803373ffffffffffffffffffffffffffffffffffffffff1673ffffffffffffffffffffffffffffffffffffffff16815260200190815260200160002060405180608001604052808581526020018481526020014281526020018381525090806001815401808255809150506001900390600052602060002090600402016000909190919091506000820151816000015560208201518160010190805190602001906117c6929190611836565b50604082015181600201556060820151816003015550503373ffffffffffffffffffffffffffffffffffffffff167fc7ca04a38fe45dee7e5d638981ab5f9eda819616342e2e1b5bba45b3066da00f848385426040516118299493929190612516565b60405180910390a2505050565b8280546118429061286e565b90600052602060002090601f01602090048101928261186457600085556118ab565b82601f1061187d57805160ff19168380011785556118ab565b828001600101855582156118ab579182015b828111156118aa57825182559160200191906001019061188f565b5b5090506118b891906118bc565b5090565b5b808211156118d55760008160009055506001016118bd565b5090565b60006118ec6118e784612593565b612562565b9050808382526020820190508260005b8581101561192c57813585016119128882611a49565b8452602084019350602083019250506001810190506118fc565b5050509392505050565b6000611949611944846125bf565b612562565b9050808382526020820190508285602086028201111561196857600080fd5b60005b85811015611998578161197e8882611a73565b84526020840193506020830192505060018101905061196b565b5050509392505050565b60006119b56119b0846125eb565b612562565b9050828152602081018484840111156119cd57600080fd5b6119d884828561282c565b509392505050565b6000813590506119ef816129b6565b92915050565b600082601f830112611a0657600080fd5b8135611a168482602086016118d9565b91505092915050565b600082601f830112611a3057600080fd5b8135611a40848260208601611936565b91505092915050565b600082601f830112611a5a57600080fd5b8135611a6a8482602086016119a2565b91505092915050565b600081359050611a82816129cd565b92915050565b600060208284031215611a9a57600080fd5b6000611aa8848285016119e0565b91505092915050565b60008060408385031215611ac457600080fd5b6000611ad2858286016119e0565b9250506020611ae385828601611a73565b9150509250929050565b600080600080600060a08688031215611b0557600080fd5b600086013567ffffffffffffffff811115611b1f57600080fd5b611b2b888289016119f5565b955050602086013567ffffffffffffffff811115611b4857600080fd5b611b5488828901611a1f565b945050604086013567ffffffffffffffff811115611b7157600080fd5b611b7d88828901611a1f565b935050606086013567ffffffffffffffff811115611b9a57600080fd5b611ba688828901611a1f565b925050608086013567ffffffffffffffff811115611bc357600080fd5b611bcf88828901611a49565b9150509295509295909350565b600080600060608486031215611bf157600080fd5b600084013567ffffffffffffffff811115611c0b57600080fd5b611c17868287016119f5565b935050602084013567ffffffffffffffff811115611c3457600080fd5b611c4086828701611a1f565b925050604084013567ffffffffffffffff811115611c5d57600080fd5b611c6986828701611a49565b9150509250925092565b600060208284031215611c8557600080fd5b6000611c9384828501611a73565b91505092915050565b60008060408385031215611caf57600080fd5b6000611cbd85828601611a73565b925050602083013567ffffffffffffffff811115611cda57600080fd5b611ce685828601611a49565b9150509250929050565b6000611cfc8383612184565b905092915050565b6000611d1083836121e7565b905092915050565b6000611d248383612251565b905092915050565b6000611d3883836122b4565b905092915050565b6000611d4c83836122f1565b905092915050565b611d5d816127f0565b82525050565b6000611d6e8261266b565b611d7881856126ee565b935083602082028501611d8a8561261b565b8060005b85811015611dc65784840389528151611da78582611cf0565b9450611db2836126ad565b925060208a01995050600181019050611d8e565b50829750879550505050505092915050565b6000611de382612676565b611ded81856126ff565b935083602082028501611dff8561262b565b8060005b85811015611e3b5784840389528151611e1c8582611d04565b9450611e27836126ba565b925060208a01995050600181019050611e03565b50829750879550505050505092915050565b6000611e5882612681565b611e628185612710565b935083602082028501611e748561263b565b8060005b85811015611eb05784840389528151611e918582611d18565b9450611e9c836126c7565b925060208a01995050600181019050611e78565b50829750879550505050505092915050565b6000611ecd8261268c565b611ed78185612721565b935083602082028501611ee98561264b565b8060005b85811015611f255784840389528151611f068582611d2c565b9450611f11836126d4565b925060208a01995050600181019050611eed565b50829750879550505050505092915050565b6000611f4282612697565b611f4c8185612732565b935083602082028501611f5e8561265b565b8060005b85811015611f9a5784840389528151611f7b8582611d40565b9450611f86836126e1565b925060208a01995050600181019050611f62565b50829750879550505050505092915050565b6000611fb7826126a2565b611fc18185612743565b9350611fd181856020860161283b565b611fda816129a5565b840191505092915050565b6000611ff0826126a2565b611ffa8185612754565b935061200a81856020860161283b565b612013816129a5565b840191505092915050565b600061202b601e83612754565b91507f4d6174657269616c73206c6973742063616e6e6f7420626520656d70747900006000830152602082019050919050565b600061206b601183612754565b91507f496e76616c69642062696c6c20686173680000000000000000000000000000006000830152602082019050919050565b60006120ab602e83612754565b91507f456c65637472696369747920636f6e73756d7074696f6e206d7573742062652060008301527f67726561746572207468616e20300000000000000000000000000000000000006020830152604082019050919050565b6000612111601983612754565b91507f4675656c206c6973742063616e6e6f7420626520656d707479000000000000006000830152602082019050919050565b6000612151601883612754565b91507f4d69736d617463686564206172726179206c656e6774687300000000000000006000830152602082019050919050565b600060808301600083015161219c600086018261235b565b50602083015184820360208601526121b48282611fac565b91505060408301516121c9604086018261235b565b5060608301516121dc606086018261235b565b508091505092915050565b60006080830160008301516121ff6000860182611d54565b50602083015184820360208601526122178282611e4d565b915050604083015184820360408601526122318282611fac565b9150506060830151612246606086018261235b565b508091505092915050565b6000608083016000830151848203600086015261226e8282611fac565b9150506020830151612283602086018261235b565b506040830151612296604086018261235b565b5060608301516122a9606086018261235b565b508091505092915050565b600060408301600083015184820360008601526122d18282611fac565b91505060208301516122e6602086018261235b565b508091505092915050565b60006080830160008301516123096000860182611d54565b50602083015184820360208601526123218282611ec2565b9150506040830151848203604086015261233b8282611fac565b9150506060830151612350606086018261235b565b508091505092915050565b61236481612822565b82525050565b61237381612822565b82525050565b600060208201905081810360008301526123938184611d63565b905092915050565b600060208201905081810360008301526123b58184611dd8565b905092915050565b600060208201905081810360008301526123d78184611f37565b905092915050565b600060408201905081810360008301526123f98185611fe5565b9050612408602083018461236a565b9392505050565b600060208201905081810360008301526124288161201e565b9050919050565b600060208201905081810360008301526124488161205e565b9050919050565b600060208201905081810360008301526124688161209e565b9050919050565b6000602082019050818103600083015261248881612104565b9050919050565b600060208201905081810360008301526124a881612144565b9050919050565b60006020820190506124c4600083018461236a565b92915050565b60006080820190506124df600083018761236a565b81810360208301526124f18186611fe5565b9050612500604083018561236a565b61250d606083018461236a565b95945050505050565b600060808201905061252b600083018761236a565b612538602083018661236a565b818103604083015261254a8185611fe5565b9050612559606083018461236a565b95945050505050565b6000604051905081810181811067ffffffffffffffff8211171561258957612588612976565b5b8060405250919050565b600067ffffffffffffffff8211156125ae576125ad612976565b5b602082029050602081019050919050565b600067ffffffffffffffff8211156125da576125d9612976565b5b602082029050602081019050919050565b600067ffffffffffffffff82111561260657612605612976565b5b601f19601f8301169050602081019050919050565b6000819050602082019050919050565b6000819050602082019050919050565b6000819050602082019050919050565b6000819050602082019050919050565b6000819050602082019050919050565b600081519050919050565b600081519050919050565b600081519050919050565b600081519050919050565b600081519050919050565b600081519050919050565b6000602082019050919050565b6000602082019050919050565b6000602082019050919050565b6000602082019050919050565b6000602082019050919050565b600082825260208201905092915050565b600082825260208201905092915050565b600082825260208201905092915050565b600082825260208201905092915050565b600082825260208201905092915050565b600082825260208201905092915050565b600082825260208201905092915050565b600061277082612822565b915061277b83612822565b92508261278b5761278a612918565b5b828204905092915050565b60006127a182612822565b91506127ac83612822565b9250817fffffffffffffffffffffffffffffffffffffffffffffffffffffffffffffffff04831182151516156127e5576127e46128e9565b5b828202905092915050565b60006127fb82612802565b9050919050565b600073ffffffffffffffffffffffffffffffffffffffff82169050919050565b6000819050919050565b82818337600083830152505050565b60005b8381101561285957808201518184015260208101905061283e565b83811115612868576000848401525b50505050565b6000600282049050600182168061288657607f821691505b6020821081141561289a57612899612947565b5b50919050565b60006128ab82612822565b91507fffffffffffffffffffffffffffffffffffffffffffffffffffffffffffffffff8214156128de576128dd6128e9565b5b600182019050919050565b7f4e487b7100000000000000000000000000000000000000000000000000000000600052601160045260246000fd5b7f4e487b7100000000000000000000000000000000000000000000000000000000600052601260045260246000fd5b7f4e487b7100000000000000000000000000000000000000000000000000000000600052602260045260246000fd5b7f4e487b7100000000000000000000000000000000000000000000000000000000600052604160045260246000fd5b6000601f19601f8301169050919050565b6129bf816127f0565b81146129ca57600080fd5b50565b6129d681612822565b81146129e157600080fd5b5056fea2646970667358221220698ad6a859a22e91baac5342ffc06c73038b84b51413a508f54252e72e7b420b64736f6c63430008000033",
  "immutableReferences": {},
  "source": "// SPDX-License-Identifier: MIT\r\npragma solidity ^0.8.0;\r\nimport \"./UserRoleManagement.sol\";\r\n\r\ncontract CarbonFootprint {\r\n    struct ElectricityData {\r\n        uint256 consumption; // in MWH\r\n        string billHash;     // IPFS hash of the bill\r\n        uint256 timestamp;   // Timestamp of the data addition\r\n        uint256 equivalentCO2; // in kg\r\n    }\r\n\r\n    // Mapping to store electricity data for each company (by their wallet address)\r\n    mapping(address => ElectricityData[]) public electricityData;\r\n\r\n    // Event to notify when electricity data is added\r\n    event ElectricityDataAdded(address indexed company, uint256 consumption,  uint256 equivalentCO2, string billHash, uint256 timestamp);\r\n\r\n    // Function to calculate equivalent CO2 emissions from electricity consumption\r\n    function calculateEquivalentCO2(uint256 _consumption) public pure returns (uint256) {\r\n        uint256 kwh = _consumption * 1000; // Convert MWh to KWh\r\n        return (kwh * 82) / 100; // Emission factor: 1 KWh = 0.82 kg CO2\r\n    }\r\n\r\n    function addElectricityData(uint256 _consumption, string memory _billHash) public {\r\n        require(_consumption > 0, \"Electricity consumption must be greater than 0\");\r\n\r\n        // Calculate equivalent CO2 using the separate function\r\n        uint256 co2Equivalent = calculateEquivalentCO2(_consumption);\r\n\r\n         // Add data to the mapping\r\n        electricityData[msg.sender].push(\r\n            ElectricityData(_consumption, _billHash, block.timestamp, co2Equivalent)\r\n        );\r\n        emit ElectricityDataAdded(msg.sender, _consumption, co2Equivalent, _billHash, block.timestamp);\r\n    }\r\n\r\n     // Function to get electricity data for the caller\r\n    function getElectricityData() public view returns (ElectricityData[] memory) {\r\n        return electricityData[msg.sender];\r\n    }\r\n\r\n    // Function to get electricity data for a specific address\r\n    function getElectricityDataByAddress(address _company) public view returns (ElectricityData[] memory) {\r\n        return electricityData[_company];\r\n    }\r\n \r\n //------------------------------------------------------------------------------------------------------------------------\r\n\r\n  struct Material {\r\n        string materialType;\r\n        uint256 quantitySupplied;\r\n    }\r\n\r\n    struct RawMaterialData {\r\n        address supplier; // The company adding raw material data\r\n        Material[] materials;\r\n        string billHash; // IPFS hash of the bill\r\n        uint256 timestamp;\r\n    }\r\n\r\n    // Mapping to store raw material data for each company (by their wallet address)\r\n    mapping(address => RawMaterialData[]) private rawMaterialRecords;\r\n\r\n    // Event to notify when raw material data is added\r\n    event RawMaterialDataAdded(\r\n        address indexed company,\r\n        string billHash,\r\n        uint256 timestamp\r\n    );\r\n\r\n    // Function to add raw material data\r\n    function addRawMaterialData(\r\n        string[] memory _materialTypes,\r\n        uint256[] memory _quantities,\r\n        string memory _billHash\r\n    ) public {\r\n        require(_materialTypes.length == _quantities.length, \"Mismatched array lengths\");\r\n        require(_materialTypes.length > 0, \"Materials list cannot be empty\");\r\n        require(bytes(_billHash).length > 0, \"Invalid bill hash\");\r\n\r\n        // Create an array in storage\r\n        RawMaterialData storage newData = rawMaterialRecords[msg.sender].push();\r\n        newData.supplier = msg.sender;\r\n        newData.billHash = _billHash;\r\n        newData.timestamp = block.timestamp;\r\n\r\n        // Store each material individually\r\n        for (uint256 i = 0; i < _materialTypes.length; i++) {\r\n            newData.materials.push(Material({\r\n                materialType: _materialTypes[i],\r\n                quantitySupplied: _quantities[i]\r\n            }));\r\n        }\r\n\r\n        emit RawMaterialDataAdded(msg.sender, _billHash, block.timestamp);\r\n    }\r\n\r\n    // Function to get raw material data for the caller\r\n    function getRawMaterialData() public view returns (RawMaterialData[] memory) {\r\n        return rawMaterialRecords[msg.sender];\r\n    }\r\n\r\n    // Function to get raw material data for a specific address\r\n    function getRawMaterialDataByAddress(address _company) public view returns (RawMaterialData[] memory) {\r\n        return rawMaterialRecords[_company];\r\n    }\r\n\r\n//---------------------------------------------------------------------------------------------------------------------------\r\n\r\n    struct Fuel {\r\n        string fuelType; // coal, natural gas, etc.\r\n        uint256 quantitySupplied; // in metric tons or cubic meters\r\n        uint256 lowerHeatingValue; // MJ/kg or BTU/lb\r\n        uint256 carbonContent; // kg of carbon per unit\r\n    }\r\n\r\n    struct FuelData {\r\n        address supplier; // The company adding fuel data\r\n        Fuel[] fuels;\r\n        string fuelBill; // IPFS hash of the fuel bill\r\n        uint256 timestamp;\r\n    }\r\n\r\n    // Mapping to store fuel data for each company (by their wallet address)\r\n    mapping(address => FuelData[]) private fuelRecords;\r\n\r\n    // Event to notify when fuel data is added\r\n    event FuelDataAdded(\r\n        address indexed company,\r\n        string fuelBill,\r\n        uint256 timestamp\r\n    );\r\n\r\n    // Function to add fuel data\r\n    function addFuelData(\r\n        string[] memory _fuelTypes,\r\n        uint256[] memory _quantities,\r\n        uint256[] memory _lowerHeatingValues,\r\n        uint256[] memory _carbonContents,\r\n        string memory _fuelBill\r\n    ) public {\r\n        require(_fuelTypes.length == _quantities.length, \"Mismatched array lengths\");\r\n        require(_fuelTypes.length > 0, \"Fuel list cannot be empty\");\r\n        require(bytes(_fuelBill).length > 0, \"Invalid bill hash\");\r\n\r\n        // Create a new fuel data entry in storage\r\n        FuelData storage newData = fuelRecords[msg.sender].push();\r\n        newData.supplier = msg.sender;\r\n        newData.fuelBill = _fuelBill;\r\n        newData.timestamp = block.timestamp;\r\n\r\n        // Store each fuel type individually\r\n        for (uint256 i = 0; i < _fuelTypes.length; i++) {\r\n            newData.fuels.push(Fuel({\r\n                fuelType: _fuelTypes[i],\r\n                quantitySupplied: _quantities[i],\r\n                lowerHeatingValue: _lowerHeatingValues[i],\r\n                carbonContent: _carbonContents[i]\r\n            }));\r\n        }\r\n\r\n        emit FuelDataAdded(msg.sender, _fuelBill, block.timestamp);\r\n    }\r\n\r\n    // Function to get fuel data for the caller\r\n    function getFuelData() public view returns (FuelData[] memory) {\r\n        return fuelRecords[msg.sender];\r\n    }\r\n\r\n    // Function to get fuel data for a specific address\r\n    function getFuelDataByAddress(address _company) public view returns (FuelData[] memory) {\r\n        return fuelRecords[_company];\r\n    }\r\n\r\n\r\n}\r\n",
  "sourcePath": "C:\\Users\\Shreya\\Desktop\\secure_carbon\\truffle\\contracts\\CarbonFootprint.sol",
  "compiler": {
    "name": "solc",
    "version": "0.8.0+commit.c7dfd78e.Emscripten.clang"
  },
  "schemaVersion": "3.4.16",
  "updatedAt": "2025-02-28T17:26:47.196Z",
  "networkType": "ethereum",
  "devdoc": {
    "kind": "dev",
    "methods": {},
    "version": 1
  },
  "userdoc": {
    "kind": "user",
    "methods": {},
    "version": 1
  }
}